{
  "contractName": "TestContract",
  "abi": [
    {
      "constant": false,
      "inputs": [
        {
          "name": "arg",
          "type": "uint256"
        }
      ],
      "name": "suma",
      "outputs": [
        {
          "name": "",
          "type": "uint256"
        }
      ],
      "payable": true,
      "stateMutability": "payable",
      "type": "function"
    },
    {
      "constant": false,
      "inputs": [
        {
          "name": "arg",
          "type": "uint256"
        }
      ],
      "name": "resta",
      "outputs": [
        {
          "name": "",
          "type": "uint256"
        }
      ],
      "payable": true,
      "stateMutability": "payable",
      "type": "function"
    },
    {
      "constant": true,
      "inputs": [],
      "name": "cuanto",
      "outputs": [
        {
          "name": "",
          "type": "uint256"
        }
      ],
      "payable": false,
      "stateMutability": "view",
      "type": "function"
    }
  ],
  "bytecode": "0x60806040526000805534801561001457600080fd5b50610168806100246000396000f3fe608060405260043610610051576000357c0100000000000000000000000000000000000000000000000000000000900480634143befb146100565780635014676114610081578063ddef5a4a146100c3575b600080fd5b34801561006257600080fd5b5061006b610105565b6040518082815260200191505060405180910390f35b6100ad6004803603602081101561009757600080fd5b810190808035906020019092919050505061010e565b6040518082815260200191505060405180910390f35b6100ef600480360360208110156100d957600080fd5b8101908080359060200190929190505050610125565b6040518082815260200191505060405180910390f35b60008054905090565b600081600054036000819055506000549050919050565b60008160005401600081905550600054905091905056fea165627a7a72305820a38472ac99ffd4e663f68f31062d526c14fe1d45e533205304236abe3453b73c0029",
  "source": "pragma solidity >=0.4.22 <0.9.0;\n\ncontract TestContract {\n    uint256 initialNumber = 0;\n\n    function suma(uint256 arg) public payable returns (uint256) {\n        initialNumber = initialNumber + arg;\n        return initialNumber;\n    }\n\n    function resta(uint256 arg) public payable returns (uint256) {\n        initialNumber = initialNumber - arg;\n        return initialNumber;\n    }\n\n    function cuanto() public view returns (uint256) {\n        return initialNumber;\n    }\n}\n",
  "sourcePath": "/Users/leonardo.venezia/Desktop/MiÌo/Cripto/Test/contracts/TestContract.sol",
  "compiler": {
    "name": "solc",
    "version": "0.5.1+commit.c8a2cb62.Emscripten.clang"
  },
  "schemaVersion": "3.4.3",
  "updatedAt": "2021-09-26T17:40:59.370Z",
  "networkType": "ethereum",
  "devdoc": {
    "methods": {}
  },
  "userdoc": {
    "methods": {}
  }
}